{
  "contractName": "Campaign",
  "abi": [
    {
      "inputs": [
        {
          "internalType": "string",
          "name": "_campaignName",
          "type": "string"
        },
        {
          "internalType": "string",
          "name": "_organisationUrl",
          "type": "string"
        },
        {
          "internalType": "uint64",
          "name": "_endTimestamp",
          "type": "uint64"
        },
        {
          "internalType": "address payable",
          "name": "_beneficiaryAddress",
          "type": "address"
        },
        {
          "internalType": "address",
          "name": "_campaignOwnerAddress",
          "type": "address"
        },
        {
          "internalType": "uint256",
          "name": "_targetDonationAmount",
          "type": "uint256"
        },
        {
          "internalType": "string",
          "name": "_campaignDescription",
          "type": "string"
        }
      ],
      "stateMutability": "nonpayable",
      "type": "constructor"
    },
    {
      "anonymous": false,
      "inputs": [
        {
          "indexed": false,
          "internalType": "address",
          "name": "donorAddress",
          "type": "address"
        },
        {
          "indexed": false,
          "internalType": "uint256",
          "name": "amount",
          "type": "uint256"
        }
      ],
      "name": "Donate",
      "type": "event"
    },
    {
      "anonymous": false,
      "inputs": [
        {
          "indexed": false,
          "internalType": "address",
          "name": "withdrawerAddress",
          "type": "address"
        },
        {
          "indexed": false,
          "internalType": "uint256",
          "name": "amount",
          "type": "uint256"
        },
        {
          "indexed": false,
          "internalType": "address",
          "name": "toAddress",
          "type": "address"
        }
      ],
      "name": "Withdraw",
      "type": "event"
    },
    {
      "inputs": [
        {
          "internalType": "address",
          "name": "",
          "type": "address"
        }
      ],
      "name": "donations",
      "outputs": [
        {
          "internalType": "uint256",
          "name": "",
          "type": "uint256"
        }
      ],
      "stateMutability": "view",
      "type": "function"
    },
    {
      "inputs": [],
      "name": "donate",
      "outputs": [],
      "stateMutability": "payable",
      "type": "function"
    },
    {
      "inputs": [
        {
          "internalType": "uint256",
          "name": "amount",
          "type": "uint256"
        }
      ],
      "name": "withdraw",
      "outputs": [],
      "stateMutability": "payable",
      "type": "function"
    },
    {
      "inputs": [],
      "name": "getCampaignName",
      "outputs": [
        {
          "internalType": "string",
          "name": "",
          "type": "string"
        }
      ],
      "stateMutability": "view",
      "type": "function"
    },
    {
      "inputs": [],
      "name": "getorganisationUrl",
      "outputs": [
        {
          "internalType": "string",
          "name": "",
          "type": "string"
        }
      ],
      "stateMutability": "view",
      "type": "function"
    },
    {
      "inputs": [],
      "name": "getEndTimeStamp",
      "outputs": [
        {
          "internalType": "uint64",
          "name": "",
          "type": "uint64"
        }
      ],
      "stateMutability": "view",
      "type": "function"
    },
    {
      "inputs": [],
      "name": "getBeneficiaryAddress",
      "outputs": [
        {
          "internalType": "address",
          "name": "",
          "type": "address"
        }
      ],
      "stateMutability": "view",
      "type": "function"
    },
    {
      "inputs": [],
      "name": "getCampaignOwnerAddress",
      "outputs": [
        {
          "internalType": "address",
          "name": "",
          "type": "address"
        }
      ],
      "stateMutability": "view",
      "type": "function"
    },
    {
      "inputs": [],
      "name": "getTotalDonationAmount",
      "outputs": [
        {
          "internalType": "uint256",
          "name": "",
          "type": "uint256"
        }
      ],
      "stateMutability": "view",
      "type": "function"
    },
    {
      "inputs": [],
      "name": "getOwnDonationAmount",
      "outputs": [
        {
          "internalType": "uint256",
          "name": "",
          "type": "uint256"
        }
      ],
      "stateMutability": "view",
      "type": "function"
    },
    {
      "inputs": [],
      "name": "getCampaignDescription",
      "outputs": [
        {
          "internalType": "string",
          "name": "",
          "type": "string"
        }
      ],
      "stateMutability": "view",
      "type": "function"
    },
    {
      "inputs": [
        {
          "internalType": "address",
          "name": "donorAddress",
          "type": "address"
        }
      ],
      "name": "getDonationAmountByAddress",
      "outputs": [
        {
          "internalType": "uint256",
          "name": "",
          "type": "uint256"
        }
      ],
      "stateMutability": "view",
      "type": "function"
    },
    {
      "inputs": [],
      "name": "getAvailableDonationBalance",
      "outputs": [
        {
          "internalType": "uint256",
          "name": "",
          "type": "uint256"
        }
      ],
      "stateMutability": "view",
      "type": "function"
    }
  ],
  "bytecode": "0x608060405260006006553480156200001657600080fd5b50604051620014603803806200146083398181016040528101906200003c9190620004bd565b86600090805190602001906200005492919062000146565b5085600190805190602001906200006d92919062000146565b5084600260006101000a81548167ffffffffffffffff021916908367ffffffffffffffff16021790555083600260086101000a81548173ffffffffffffffffffffffffffffffffffffffff021916908373ffffffffffffffffffffffffffffffffffffffff16021790555082600360006101000a81548173ffffffffffffffffffffffffffffffffffffffff021916908373ffffffffffffffffffffffffffffffffffffffff1602179055508160048190555080600590805190602001906200013892919062000146565b505050505050505062000632565b8280546200015490620005fc565b90600052602060002090601f016020900481019282620001785760008555620001c4565b82601f106200019357805160ff1916838001178555620001c4565b82800160010185558215620001c4579182015b82811115620001c3578251825591602001919060010190620001a6565b5b509050620001d39190620001d7565b5090565b5b80821115620001f2576000816000905550600101620001d8565b5090565b6000604051905090565b600080fd5b600080fd5b600080fd5b600080fd5b6000601f19601f8301169050919050565b7f4e487b7100000000000000000000000000000000000000000000000000000000600052604160045260246000fd5b6200025f8262000214565b810181811067ffffffffffffffff8211171562000281576200028062000225565b5b80604052505050565b600062000296620001f6565b9050620002a4828262000254565b919050565b600067ffffffffffffffff821115620002c757620002c662000225565b5b620002d28262000214565b9050602081019050919050565b60005b83811015620002ff578082015181840152602081019050620002e2565b838111156200030f576000848401525b50505050565b60006200032c6200032684620002a9565b6200028a565b9050828152602081018484840111156200034b576200034a6200020f565b5b62000358848285620002df565b509392505050565b600082601f8301126200037857620003776200020a565b5b81516200038a84826020860162000315565b91505092915050565b600067ffffffffffffffff82169050919050565b620003b28162000393565b8114620003be57600080fd5b50565b600081519050620003d281620003a7565b92915050565b600073ffffffffffffffffffffffffffffffffffffffff82169050919050565b60006200040582620003d8565b9050919050565b6200041781620003f8565b81146200042357600080fd5b50565b60008151905062000437816200040c565b92915050565b60006200044a82620003d8565b9050919050565b6200045c816200043d565b81146200046857600080fd5b50565b6000815190506200047c8162000451565b92915050565b6000819050919050565b620004978162000482565b8114620004a357600080fd5b50565b600081519050620004b7816200048c565b92915050565b600080600080600080600060e0888a031215620004df57620004de62000200565b5b600088015167ffffffffffffffff8111156200050057620004ff62000205565b5b6200050e8a828b0162000360565b975050602088015167ffffffffffffffff81111562000532576200053162000205565b5b620005408a828b0162000360565b9650506040620005538a828b01620003c1565b9550506060620005668a828b0162000426565b9450506080620005798a828b016200046b565b93505060a06200058c8a828b01620004a6565b92505060c088015167ffffffffffffffff811115620005b057620005af62000205565b5b620005be8a828b0162000360565b91505092959891949750929550565b7f4e487b7100000000000000000000000000000000000000000000000000000000600052602260045260246000fd5b600060028204905060018216806200061557607f821691505b602082108114156200062c576200062b620005cd565b5b50919050565b610e1e80620006426000396000f3fe6080604052600436106100c25760003560e01c806384869fbc1161007f578063942eac6d11610059578063942eac6d1461023b578063cc6cb19a14610278578063d1eff895146102b5578063ed88c68e146102e0576100c2565b806384869fbc146101ba578063885e7c62146101e5578063937b18c814610210576100c2565b8063047ae69d146100c75780630865146a146100f25780632e1a7d4d1461011d5780633343414b14610139578063579a8c421461016457806374d8c6431461018f575b600080fd5b3480156100d357600080fd5b506100dc6102ea565b6040516100e99190610900565b60405180910390f35b3480156100fe57600080fd5b50610107610314565b6040516101149190610934565b60405180910390f35b61013760048036038101906101329190610980565b61031e565b005b34801561014557600080fd5b5061014e610522565b60405161015b91906109d0565b60405180910390f35b34801561017057600080fd5b50610179610540565b6040516101869190610a84565b60405180910390f35b34801561019b57600080fd5b506101a46105d2565b6040516101b19190610a84565b60405180910390f35b3480156101c657600080fd5b506101cf610664565b6040516101dc9190610934565b60405180910390f35b3480156101f157600080fd5b506101fa6106ab565b6040516102079190610a84565b60405180910390f35b34801561021c57600080fd5b5061022561073d565b6040516102329190610934565b60405180910390f35b34801561024757600080fd5b50610262600480360381019061025d9190610ad2565b610745565b60405161026f9190610934565b60405180910390f35b34801561028457600080fd5b5061029f600480360381019061029a9190610ad2565b61078e565b6040516102ac9190610934565b60405180910390f35b3480156102c157600080fd5b506102ca6107a6565b6040516102d79190610900565b60405180910390f35b6102e86107d0565b005b6000600360009054906101000a900473ffffffffffffffffffffffffffffffffffffffff16905090565b6000600654905090565b336000600360009054906101000a900473ffffffffffffffffffffffffffffffffffffffff1673ffffffffffffffffffffffffffffffffffffffff168273ffffffffffffffffffffffffffffffffffffffff161490506000600260089054906101000a900473ffffffffffffffffffffffffffffffffffffffff1673ffffffffffffffffffffffffffffffffffffffff168373ffffffffffffffffffffffffffffffffffffffff1614905081806103d25750805b610411576040517f08c379a000000000000000000000000000000000000000000000000000000000815260040161040890610b4b565b60405180910390fd5b8380471015610455576040517f08c379a000000000000000000000000000000000000000000000000000000000815260040161044c90610bb7565b60405180910390fd5b600260089054906101000a900473ffffffffffffffffffffffffffffffffffffffff1673ffffffffffffffffffffffffffffffffffffffff166108fc869081150290604051600060405180830381858888f193505050501580156104bd573d6000803e3d6000fd5b507f56c54ba9bd38d8fd62012e42c7ee564519b09763c426d331b3661b537ead19b23386600260089054906101000a900473ffffffffffffffffffffffffffffffffffffffff1660405161051393929190610c36565b60405180910390a15050505050565b6000600260009054906101000a900467ffffffffffffffff16905090565b60606001805461054f90610c9c565b80601f016020809104026020016040519081016040528092919081815260200182805461057b90610c9c565b80156105c85780601f1061059d576101008083540402835291602001916105c8565b820191906000526020600020905b8154815290600101906020018083116105ab57829003601f168201915b5050505050905090565b6060600580546105e190610c9c565b80601f016020809104026020016040519081016040528092919081815260200182805461060d90610c9c565b801561065a5780601f1061062f5761010080835404028352916020019161065a565b820191906000526020600020905b81548152906001019060200180831161063d57829003601f168201915b5050505050905090565b6000600760003373ffffffffffffffffffffffffffffffffffffffff1673ffffffffffffffffffffffffffffffffffffffff16815260200190815260200160002054905090565b6060600080546106ba90610c9c565b80601f01602080910402602001604051908101604052809291908181526020018280546106e690610c9c565b80156107335780601f1061070857610100808354040283529160200191610733565b820191906000526020600020905b81548152906001019060200180831161071657829003601f168201915b5050505050905090565b600047905090565b6000600760008373ffffffffffffffffffffffffffffffffffffffff1673ffffffffffffffffffffffffffffffffffffffff168152602001908152602001600020549050919050565b60076020528060005260406000206000915090505481565b6000600260089054906101000a900473ffffffffffffffffffffffffffffffffffffffff16905090565b3460008111610814576040517f08c379a000000000000000000000000000000000000000000000000000000000815260040161080b90610d1a565b60405180910390fd5b34600660008282546108269190610d69565b9250508190555034600760003373ffffffffffffffffffffffffffffffffffffffff1673ffffffffffffffffffffffffffffffffffffffff168152602001908152602001600020600082825461087c9190610d69565b925050819055507f0553260a2e46b0577270d8992db02d30856ca880144c72d6e9503760946aef1333346040516108b4929190610dbf565b60405180910390a150565b600073ffffffffffffffffffffffffffffffffffffffff82169050919050565b60006108ea826108bf565b9050919050565b6108fa816108df565b82525050565b600060208201905061091560008301846108f1565b92915050565b6000819050919050565b61092e8161091b565b82525050565b60006020820190506109496000830184610925565b92915050565b600080fd5b61095d8161091b565b811461096857600080fd5b50565b60008135905061097a81610954565b92915050565b6000602082840312156109965761099561094f565b5b60006109a48482850161096b565b91505092915050565b600067ffffffffffffffff82169050919050565b6109ca816109ad565b82525050565b60006020820190506109e560008301846109c1565b92915050565b600081519050919050565b600082825260208201905092915050565b60005b83811015610a25578082015181840152602081019050610a0a565b83811115610a34576000848401525b50505050565b6000601f19601f8301169050919050565b6000610a56826109eb565b610a6081856109f6565b9350610a70818560208601610a07565b610a7981610a3a565b840191505092915050565b60006020820190508181036000830152610a9e8184610a4b565b905092915050565b610aaf816108df565b8114610aba57600080fd5b50565b600081359050610acc81610aa6565b92915050565b600060208284031215610ae857610ae761094f565b5b6000610af684828501610abd565b91505092915050565b7f4e6f74206f776e6572206f722062656e65666963696172792e2e2e0000000000600082015250565b6000610b35601b836109f6565b9150610b4082610aff565b602082019050919050565b60006020820190508181036000830152610b6481610b28565b9050919050565b7f4e6f7420656e6f7567682062616c616e63652e2e2e0000000000000000000000600082015250565b6000610ba16015836109f6565b9150610bac82610b6b565b602082019050919050565b60006020820190508181036000830152610bd081610b94565b9050919050565b6000819050919050565b6000610bfc610bf7610bf2846108bf565b610bd7565b6108bf565b9050919050565b6000610c0e82610be1565b9050919050565b6000610c2082610c03565b9050919050565b610c3081610c15565b82525050565b6000606082019050610c4b60008301866108f1565b610c586020830185610925565b610c656040830184610c27565b949350505050565b7f4e487b7100000000000000000000000000000000000000000000000000000000600052602260045260246000fd5b60006002820490506001821680610cb457607f821691505b60208210811415610cc857610cc7610c6d565b5b50919050565b7f56616c7565206f66203020646f6e617465642e2e2e0000000000000000000000600082015250565b6000610d046015836109f6565b9150610d0f82610cce565b602082019050919050565b60006020820190508181036000830152610d3381610cf7565b9050919050565b7f4e487b7100000000000000000000000000000000000000000000000000000000600052601160045260246000fd5b6000610d748261091b565b9150610d7f8361091b565b9250827fffffffffffffffffffffffffffffffffffffffffffffffffffffffffffffffff03821115610db457610db3610d3a565b5b828201905092915050565b6000604082019050610dd460008301856108f1565b610de16020830184610925565b939250505056fea26469706673582212208395e848b5f36d5d288ec1d4c5c94b047b7d8411500dd389be16f783962fe01564736f6c634300080c0033",
  "immutableReferences": {},
  "source": "// SPDX-License-Identifier: UNLICENSED\npragma solidity >= 0.5.0;\n\ncontract Campaign {\n    string campaignName;\n    string organisationUrl;\n    uint64 endTimestamp;\n    address payable beneficiaryAddress;\n    address campaignOwnerAddress;\n    uint256 targetDonationAmount;\n    string campaignDescription;\n\n    // Default starting donated sum\n    uint256 totalDonationAmount = 0;\n\n    // Mappings of address to donation amount\n    mapping(address => uint256) public donations;\n\n    event Donate(address donorAddress, uint256 amount);\n    event Withdraw(\n        address withdrawerAddress,\n        uint256 amount,\n        address toAddress\n    );\n\n    constructor (\n        string memory _campaignName,\n        string memory _organisationUrl,\n        uint64 _endTimestamp,\n        address payable _beneficiaryAddress,\n        address _campaignOwnerAddress,\n        uint256 _targetDonationAmount,\n        string memory _campaignDescription\n    ) {\n        campaignName = _campaignName;\n        organisationUrl = _organisationUrl;\n        endTimestamp = _endTimestamp;\n        beneficiaryAddress = _beneficiaryAddress;\n        campaignOwnerAddress = _campaignOwnerAddress;\n        targetDonationAmount = _targetDonationAmount;\n        campaignDescription = _campaignDescription;\n    }\n\n    // Checks if the donation value is not zero.\n    modifier notZeroDonationValue(uint256 value) {\n        require(\n            value > 0,\n            \"Value of 0 donated...\"\n        );\n        _;\n    }\n\n    // Checks if the withdrawer's address belongs\n    // to the campaign owner or the beneficiary.\n    modifier equalsCampaignOwnerOrBeneficary(address withdrawerAddress) {\n        bool isCampaignOwnerAddress = withdrawerAddress == campaignOwnerAddress;\n        bool isBeneficiaryAddress = withdrawerAddress == beneficiaryAddress;\n        require(\n            isCampaignOwnerAddress || isBeneficiaryAddress,\n            \"Not owner or beneficiary...\"\n        );\n        _;\n    }\n\n    // Checks if there is enough donation balance available for withdrawing.\n    modifier hasAvailableDonationBalance(uint256 value) {\n        require(\n            address(this).balance >= value,\n            \"Not enough balance...\"\n        );\n        _;\n    }\n\n    // Donates eth to the campaign. The ether is held in this contract.\n    function donate() public payable notZeroDonationValue(msg.value) {\n        totalDonationAmount += msg.value;\n        donations[msg.sender] += msg.value;\n        emit Donate(msg.sender, msg.value);\n    }\n\n    // Withdraws the specified eth amount from this campaign contract.\n    function withdraw(uint256 amount)\n        public\n        payable\n        equalsCampaignOwnerOrBeneficary(msg.sender)\n        hasAvailableDonationBalance(amount)\n    {\n        beneficiaryAddress.transfer(amount);\n        emit Withdraw(msg.sender, amount, beneficiaryAddress);\n    }\n\n    function getCampaignName() public view returns (string memory) {\n        return campaignName;\n    }\n\n    function getorganisationUrl() public view returns (string memory) {\n        return organisationUrl;\n    }\n\n    function getEndTimeStamp() public view returns (uint64) {\n        return endTimestamp;\n    }\n\n    function getBeneficiaryAddress() public view returns (address) {\n        return beneficiaryAddress;\n    }\n\n    function getCampaignOwnerAddress() public view returns (address) {\n        return campaignOwnerAddress;\n    }\n\n    function getTotalDonationAmount() public view returns (uint256) {\n        return totalDonationAmount;\n    }\n\n    function getOwnDonationAmount() public view returns (uint256) {\n        return donations[msg.sender];\n    }\n\n    function getCampaignDescription() public view returns (string memory) {\n        return campaignDescription;\n    }\n\n    function getDonationAmountByAddress(address donorAddress)\n        public\n        view\n        returns (uint256)\n    {\n        return donations[donorAddress];\n    }\n\n    function getAvailableDonationBalance() public view returns (uint256) {\n        return address(this).balance;\n    }\n}\n",
  "sourcePath": "/home/kelvin/Eleos/blockchain/contracts/Campaign.sol",
  "compiler": {
    "name": "solc",
    "version": "0.8.12+commit.f00d7308.Emscripten.clang"
  },
  "schemaVersion": "3.4.4",
  "updatedAt": "2022-03-18T09:00:20.111Z",
  "devdoc": {
    "kind": "dev",
    "methods": {},
    "version": 1
  },
  "userdoc": {
    "kind": "user",
    "methods": {},
    "version": 1
  }
}